{
  "contractName": "PaymentPool",
  "abi": [
    {
      "inputs": [],
      "stateMutability": "nonpayable",
      "type": "constructor"
    },
    {
      "anonymous": false,
      "inputs": [
        {
          "indexed": false,
          "internalType": "string",
          "name": "message",
          "type": "string"
        },
        {
          "indexed": false,
          "internalType": "uint256",
          "name": "value",
          "type": "uint256"
        }
      ],
      "name": "LogMessage",
      "type": "event"
    },
    {
      "anonymous": false,
      "inputs": [
        {
          "indexed": true,
          "internalType": "address",
          "name": "previousOwner",
          "type": "address"
        },
        {
          "indexed": true,
          "internalType": "address",
          "name": "newOwner",
          "type": "address"
        }
      ],
      "name": "OwnershipTransferred",
      "type": "event"
    },
    {
      "inputs": [],
      "name": "owner",
      "outputs": [
        {
          "internalType": "address",
          "name": "",
          "type": "address"
        }
      ],
      "stateMutability": "view",
      "type": "function",
      "constant": true
    },
    {
      "inputs": [],
      "name": "renounceOwnership",
      "outputs": [],
      "stateMutability": "nonpayable",
      "type": "function"
    },
    {
      "inputs": [
        {
          "internalType": "address",
          "name": "newOwner",
          "type": "address"
        }
      ],
      "name": "transferOwnership",
      "outputs": [],
      "stateMutability": "nonpayable",
      "type": "function"
    },
    {
      "inputs": [],
      "name": "getFundTotal",
      "outputs": [
        {
          "internalType": "uint256",
          "name": "",
          "type": "uint256"
        }
      ],
      "stateMutability": "nonpayable",
      "type": "function"
    },
    {
      "inputs": [
        {
          "internalType": "address",
          "name": "_user",
          "type": "address"
        }
      ],
      "name": "ownerGetPoolUserTotal",
      "outputs": [
        {
          "internalType": "uint256",
          "name": "",
          "type": "uint256"
        }
      ],
      "stateMutability": "nonpayable",
      "type": "function"
    },
    {
      "inputs": [],
      "name": "getPoolUserTotal",
      "outputs": [
        {
          "internalType": "uint256",
          "name": "",
          "type": "uint256"
        }
      ],
      "stateMutability": "nonpayable",
      "type": "function"
    },
    {
      "inputs": [
        {
          "internalType": "uint256",
          "name": "_amount",
          "type": "uint256"
        }
      ],
      "name": "fund",
      "outputs": [],
      "stateMutability": "nonpayable",
      "type": "function"
    },
    {
      "inputs": [
        {
          "internalType": "uint256",
          "name": "_amount",
          "type": "uint256"
        }
      ],
      "name": "claim",
      "outputs": [],
      "stateMutability": "nonpayable",
      "type": "function"
    }
  ],
  "bytecode": "0x608060405234801561000f575f80fd5b5061002c61002161003860201b60201c565b61003f60201b60201c565b5f600181905550610100565b5f33905090565b5f805f9054906101000a900473ffffffffffffffffffffffffffffffffffffffff169050815f806101000a81548173ffffffffffffffffffffffffffffffffffffffff021916908373ffffffffffffffffffffffffffffffffffffffff1602179055508173ffffffffffffffffffffffffffffffffffffffff168173ffffffffffffffffffffffffffffffffffffffff167f8be0079c531659141344cd1fd0a4f28419497f9722a3daafe3b4186f6b6457e060405160405180910390a35050565b610b5c8061010d5f395ff3fe608060405234801561000f575f80fd5b5060043610610086575f3560e01c80638da5cb5b116100595780638da5cb5b146100fe57806392c80b6a1461011c578063ca1d209d1461013a578063f2fde38b1461015657610086565b8063059bd2bd1461008a5780631e4e7795146100ba578063379607f5146100d8578063715018a6146100f4575b5f80fd5b6100a4600480360381019061009f91906106f8565b610172565b6040516100b1919061073b565b60405180910390f35b6100c26101c0565b6040516100cf919061073b565b60405180910390f35b6100f260048036038101906100ed919061077e565b610204565b005b6100fc6103ad565b005b6101066103c0565b60405161011391906107b8565b60405180910390f35b6101246103e7565b604051610131919061073b565b60405180910390f35b610154600480360381019061014f919061077e565b6103f8565b005b610170600480360381019061016b91906106f8565b6104d2565b005b5f61017b610554565b60025f3373ffffffffffffffffffffffffffffffffffffffff1673ffffffffffffffffffffffffffffffffffffffff1681526020019081526020015f20549050919050565b5f60025f3373ffffffffffffffffffffffffffffffffffffffff1673ffffffffffffffffffffffffffffffffffffffff1681526020019081526020015f2054905090565b806001541061037157806001541015610252576040517f08c379a00000000000000000000000000000000000000000000000000000000081526004016102499061082b565b60405180910390fd5b8060025f3373ffffffffffffffffffffffffffffffffffffffff1673ffffffffffffffffffffffffffffffffffffffff1681526020019081526020015f205410156102d2576040517f08c379a00000000000000000000000000000000000000000000000000000000081526004016102c990610893565b60405180910390fd5b806001546102e091906108de565b6001819055508060025f3373ffffffffffffffffffffffffffffffffffffffff1673ffffffffffffffffffffffffffffffffffffffff1681526020019081526020015f205461032f91906108de565b60025f3373ffffffffffffffffffffffffffffffffffffffff1673ffffffffffffffffffffffffffffffffffffffff1681526020019081526020015f20819055505b7f69a6cf7852823a03f1e0278fa944045502fae9fb546695dbf1f50521651a8b736001546040516103a2919061095b565b60405180910390a150565b6103b5610554565b6103be5f6105d2565b565b5f805f9054906101000a900473ffffffffffffffffffffffffffffffffffffffff16905090565b5f6103f0610554565b600154905090565b806001546104069190610987565b6001819055508060025f3373ffffffffffffffffffffffffffffffffffffffff1673ffffffffffffffffffffffffffffffffffffffff1681526020019081526020015f20546104559190610987565b60025f3373ffffffffffffffffffffffffffffffffffffffff1673ffffffffffffffffffffffffffffffffffffffff1681526020019081526020015f20819055507f69a6cf7852823a03f1e0278fa944045502fae9fb546695dbf1f50521651a8b736001546040516104c79190610a04565b60405180910390a150565b6104da610554565b5f73ffffffffffffffffffffffffffffffffffffffff168173ffffffffffffffffffffffffffffffffffffffff1603610548576040517f08c379a000000000000000000000000000000000000000000000000000000000815260040161053f90610aa0565b60405180910390fd5b610551816105d2565b50565b61055c610693565b73ffffffffffffffffffffffffffffffffffffffff1661057a6103c0565b73ffffffffffffffffffffffffffffffffffffffff16146105d0576040517f08c379a00000000000000000000000000000000000000000000000000000000081526004016105c790610b08565b60405180910390fd5b565b5f805f9054906101000a900473ffffffffffffffffffffffffffffffffffffffff169050815f806101000a81548173ffffffffffffffffffffffffffffffffffffffff021916908373ffffffffffffffffffffffffffffffffffffffff1602179055508173ffffffffffffffffffffffffffffffffffffffff168173ffffffffffffffffffffffffffffffffffffffff167f8be0079c531659141344cd1fd0a4f28419497f9722a3daafe3b4186f6b6457e060405160405180910390a35050565b5f33905090565b5f80fd5b5f73ffffffffffffffffffffffffffffffffffffffff82169050919050565b5f6106c78261069e565b9050919050565b6106d7816106bd565b81146106e1575f80fd5b50565b5f813590506106f2816106ce565b92915050565b5f6020828403121561070d5761070c61069a565b5b5f61071a848285016106e4565b91505092915050565b5f819050919050565b61073581610723565b82525050565b5f60208201905061074e5f83018461072c565b92915050565b61075d81610723565b8114610767575f80fd5b50565b5f8135905061077881610754565b92915050565b5f602082840312156107935761079261069a565b5b5f6107a08482850161076a565b91505092915050565b6107b2816106bd565b82525050565b5f6020820190506107cb5f8301846107a9565b92915050565b5f82825260208201905092915050565b7f706f6f6c546f74616c206e6f7420656e6f7567680000000000000000000000005f82015250565b5f6108156014836107d1565b9150610820826107e1565b602082019050919050565b5f6020820190508181035f83015261084281610809565b9050919050565b7f706f6f6c55736572546f74616c206e6f7420656e6f75676800000000000000005f82015250565b5f61087d6018836107d1565b915061088882610849565b602082019050919050565b5f6020820190508181035f8301526108aa81610871565b9050919050565b7f4e487b71000000000000000000000000000000000000000000000000000000005f52601160045260245ffd5b5f6108e882610723565b91506108f383610723565b925082820390508181111561090b5761090a6108b1565b5b92915050565b7f66756e6374696f6e20636c61696d2875696e74293a20000000000000000000005f82015250565b5f6109456016836107d1565b915061095082610911565b602082019050919050565b5f6040820190508181035f83015261097281610939565b9050610981602083018461072c565b92915050565b5f61099182610723565b915061099c83610723565b92508282019050808211156109b4576109b36108b1565b5b92915050565b7f4c6f674d65737361676520696e2066756e6374696f6e2066756e643a200000005f82015250565b5f6109ee601d836107d1565b91506109f9826109ba565b602082019050919050565b5f6040820190508181035f830152610a1b816109e2565b9050610a2a602083018461072c565b92915050565b7f4f776e61626c653a206e6577206f776e657220697320746865207a65726f20615f8201527f6464726573730000000000000000000000000000000000000000000000000000602082015250565b5f610a8a6026836107d1565b9150610a9582610a30565b604082019050919050565b5f6020820190508181035f830152610ab781610a7e565b9050919050565b7f4f776e61626c653a2063616c6c6572206973206e6f7420746865206f776e65725f82015250565b5f610af26020836107d1565b9150610afd82610abe565b602082019050919050565b5f6020820190508181035f830152610b1f81610ae6565b905091905056fea2646970667358221220d0c934c0f1b6ef1fff6783308e138ec1d3c70ce4e7d7663dd72d46e0d38dfee864736f6c63430008140033",
  "immutableReferences": {},
  "source": "// SPDX-License-Identifier: MIT\npragma solidity >=0.4.22 <0.9.0;\n\nimport \"@openzeppelin/contracts/access/Ownable.sol\";\n\ncontract PaymentPool is Ownable {\n\n  uint256 poolTotal;\n  mapping(address => uint) poolUserTotal;\n\n  constructor() public {\n    poolTotal = 0;\n  }\n\n  event LogMessage(\n    string message,\n    uint256 value\n  );\n\n  function getFundTotal()\n    onlyOwner\n    public\n    returns (uint256)\n  {\n    return poolTotal;\n  }\n\n  function ownerGetPoolUserTotal(address _user)\n    onlyOwner\n    public\n    returns (uint256)\n  {\n    return poolUserTotal[msg.sender];\n  }\n\n  function getPoolUserTotal()\n    public\n    returns (uint256)\n  {\n    return poolUserTotal[msg.sender];\n  }\n\n  function fund(uint256 _amount)\n    public\n  {\n    poolTotal = poolTotal + _amount;\n    poolUserTotal[msg.sender] = poolUserTotal[msg.sender] + _amount;\n\n    emit LogMessage(\n      \"LogMessage in function fund: \",\n      poolTotal\n    );\n  }\n\n  function claim(uint256 _amount)\n    public\n  {\n    if (poolTotal >= _amount) {\n      require(poolTotal >= _amount, \"poolTotal not enough\");\n      require(poolUserTotal[msg.sender] >= _amount, \"poolUserTotal not enough\");\n      poolTotal = poolTotal - _amount;\n      poolUserTotal[msg.sender] = poolUserTotal[msg.sender] - _amount;\n    }\n\n    // TODO add code to transfer tokens to claimer\n\n    emit LogMessage(\n      \"function claim(uint): \",\n      poolTotal\n    );\n  }\n}\n",
  "sourcePath": "/home/gavin/repos/electron-wallet/apps/paymentPool/contracts/PaymentPool.sol",
  "compiler": {
    "name": "solc",
    "version": "0.8.20+commit.a1b79de6.Emscripten.clang"
  },
  "schemaVersion": "3.4.14",
  "updatedAt": "2023-07-21T00:16:50.815Z",
  "networkType": "ethereum",
  "devdoc": {
    "kind": "dev",
    "methods": {
      "owner()": {
        "details": "Returns the address of the current owner."
      },
      "renounceOwnership()": {
        "details": "Leaves the contract without owner. It will not be possible to call `onlyOwner` functions. Can only be called by the current owner. NOTE: Renouncing ownership will leave the contract without an owner, thereby disabling any functionality that is only available to the owner."
      },
      "transferOwnership(address)": {
        "details": "Transfers ownership of the contract to a new account (`newOwner`). Can only be called by the current owner."
      }
    },
    "version": 1
  },
  "userdoc": {
    "kind": "user",
    "methods": {},
    "version": 1
  }
}